{
  "contractName": "Notary",
  "abi": [
    {
      "constant": false,
      "inputs": [
        {
          "name": "proof",
          "type": "bytes32"
        }
      ],
      "name": "storeProof",
      "outputs": [],
      "payable": false,
      "stateMutability": "nonpayable",
      "type": "function"
    },
    {
      "constant": false,
      "inputs": [
        {
          "name": "document",
          "type": "string"
        }
      ],
      "name": "notarize",
      "outputs": [],
      "payable": false,
      "stateMutability": "nonpayable",
      "type": "function"
    },
    {
      "constant": true,
      "inputs": [
        {
          "name": "document",
          "type": "string"
        }
      ],
      "name": "proofFor",
      "outputs": [
        {
          "name": "",
          "type": "bytes32"
        }
      ],
      "payable": false,
      "stateMutability": "view",
      "type": "function"
    },
    {
      "constant": true,
      "inputs": [
        {
          "name": "document",
          "type": "string"
        }
      ],
      "name": "checkDocument",
      "outputs": [
        {
          "name": "",
          "type": "bool"
        }
      ],
      "payable": false,
      "stateMutability": "view",
      "type": "function"
    },
    {
      "constant": true,
      "inputs": [
        {
          "name": "proof",
          "type": "bytes32"
        }
      ],
      "name": "hasProof",
      "outputs": [
        {
          "name": "",
          "type": "bool"
        }
      ],
      "payable": false,
      "stateMutability": "view",
      "type": "function"
    }
  ],
  "bytecode": "0x6060604052341561000f57600080fd5b6103848061001e6000396000f30060606040526004361061006d576000357c0100000000000000000000000000000000000000000000000000000000900463ffffffff16806353fb9233146100725780637183616c146100e75780638952877b14610144578063e3d1e6d61461016b578063f6c1acdf146101aa575b600080fd5b341561007d57600080fd5b6100cd600480803590602001908201803590602001908080601f01602080910402602001604051908101604052809392919081815260200183838082843782019150505050505091905050610223565b604051808215151515815260200191505060405180910390f35b34156100f257600080fd5b610142600480803590602001908201803590602001908080601f01602080910402602001604051908101604052809392919081815260200183838082843782019150505050505091905050610242565b005b341561014f57600080fd5b61016960048080356000191690602001909190505061025c565b005b341561017657600080fd5b610190600480803560001916906020019091905050610292565b604051808215151515815260200191505060405180910390f35b34156101b557600080fd5b610205600480803590602001908201803590602001908080601f016020809104026020016040519081016040528093929190818152602001838380828437820191505050505050919050506102c3565b60405180826000191660001916815260200191505060405180910390f35b60008061022f836102c3565b905061023a81610292565b915050919050565b600061024d826102c3565b90506102588161025c565b5050565b6001600080836000191660001916815260200190815260200160002060006101000a81548160ff02191690831515021790555050565b6000806000836000191660001916815260200190815260200160002060009054906101000a900460ff169050919050565b60006002826000604051602001526040518082805190602001908083835b60208310151561030657805182526020820191506020810190506020830392506102e1565b6001836020036101000a03801982511681845116808217855250505050505090500191505060206040518083038160008661646e5a03f1151561034857600080fd5b50506040518051905090509190505600a165627a7a723058200f82ce48aaf52a4d4f31b8ff79f471c61a023b37b7bc0e7841aa0031ef58c4430029",
  "source": "pragma solidity ^0.4.15;\r\n// Proof of Existence contract, version 3\r\ncontract Notary {\r\n  mapping (bytes32 => bool) private proofs;\r\n  //mapping (bytes32 => bytes32) public proof4;\r\n  // store a proof of existence in the contract state\r\n\r\n\r\n\r\n  function storeProof(bytes32 proof) public {\r\n    proofs[proof] = true;\r\n    //proof4[proof] = proof;\r\n  }\r\n  // calculate and store the proof for a document\r\n  function notarize(string document) public {\r\n    var proof = proofFor(document);\r\n    storeProof(proof);\r\n  }\r\n  // helper function to get a document's sha256\r\n  function proofFor(string document) public constant returns (bytes32) {\r\n    return sha256(document);\r\n  }\r\n\r\n  // check if a document has been notarized\r\n  function checkDocument(string document) public constant returns (bool) {\r\n    var proof = proofFor(document);\r\n    return hasProof(proof);\r\n  }\r\n\r\n//  function hashash(bytes32 proof)  constant returns(string) {\r\n//    return proof4[proof];\r\n//  }\r\n\r\n  // returns true if proof is stored\r\n  function hasProof(bytes32 proof)  constant returns(bool) {\r\n    return proofs[proof];\r\n  }\r\n}\r\n",
  "sourcePath": "C:\\Users\\bad_engineer\\Desktop\\NS_project\\contracts\\Notary.sol",
  "compiler": {
    "name": "solc",
    "version": "0.4.19+commit.c4cbbb05.Emscripten.clang"
  },
  "schemaVersion": "2.0.0",
  "updatedAt": "2018-04-21T10:38:26.364Z"
}