{
  "contractName": "Renting",
  "abi": [
    {
      "constant": true,
      "inputs": [
        {
          "name": "",
          "type": "uint256"
        }
      ],
      "name": "articles",
      "outputs": [
        {
          "name": "id",
          "type": "uint256"
        },
        {
          "name": "seller",
          "type": "address"
        },
        {
          "name": "buyer",
          "type": "address"
        },
        {
          "name": "name",
          "type": "string"
        },
        {
          "name": "description",
          "type": "string"
        },
        {
          "name": "price",
          "type": "uint256"
        },
        {
          "name": "startdate",
          "type": "string"
        },
        {
          "name": "enddate",
          "type": "string"
        }
      ],
      "payable": false,
      "stateMutability": "view",
      "type": "function"
    },
    {
      "constant": false,
      "inputs": [
        {
          "name": "_name",
          "type": "string"
        },
        {
          "name": "_description",
          "type": "string"
        },
        {
          "name": "_price",
          "type": "uint256"
        },
        {
          "name": "_startdate",
          "type": "string"
        },
        {
          "name": "_enddate",
          "type": "string"
        }
      ],
      "name": "sellArticle",
      "outputs": [],
      "payable": false,
      "stateMutability": "nonpayable",
      "type": "function"
    },
    {
      "constant": true,
      "inputs": [],
      "name": "getNumberOfArticles",
      "outputs": [
        {
          "name": "",
          "type": "uint256"
        }
      ],
      "payable": false,
      "stateMutability": "view",
      "type": "function"
    },
    {
      "constant": true,
      "inputs": [],
      "name": "getArticlesForSale",
      "outputs": [
        {
          "name": "",
          "type": "uint256[]"
        }
      ],
      "payable": false,
      "stateMutability": "view",
      "type": "function"
    },
    {
      "constant": false,
      "inputs": [
        {
          "name": "_id",
          "type": "uint256"
        }
      ],
      "name": "buyArticle",
      "outputs": [],
      "payable": true,
      "stateMutability": "payable",
      "type": "function"
    }
  ],
  "bytecode": "0x6060604052341561000f57600080fd5b610c178061001e6000396000f30060606040526004361061006d576000357c0100000000000000000000000000000000000000000000000000000000900463ffffffff1680631cc4baa8146100725780637f6be3da1461008a57806380d8aedf146100f457806389da85d314610223578063edcfafe61461024c575b600080fd5b6100886004808035906020019091905050610514565b005b341561009557600080fd5b61009d6106bc565b6040518080602001828103825283818151815260200191508051906020019060200280838360005b838110156100e05780820151818401526020810190506100c5565b505050509050019250505060405180910390f35b34156100ff57600080fd5b610221600480803590602001908201803590602001908080601f0160208091040260200160405190810160405280939291908181526020018383808284378201915050505050509190803590602001908201803590602001908080601f0160208091040260200160405190810160405280939291908181526020018383808284378201915050505050509190803590602001909190803590602001908201803590602001908080601f0160208091040260200160405190810160405280939291908181526020018383808284378201915050505050509190803590602001908201803590602001908080601f016020809104026020016040519081016040528093929190818152602001838380828437820191505050505050919050506107d1565b005b341561022e57600080fd5b610236610aa4565b6040518082815260200191505060405180910390f35b341561025757600080fd5b61026d6004808035906020019091905050610aae565b604051808981526020018873ffffffffffffffffffffffffffffffffffffffff1673ffffffffffffffffffffffffffffffffffffffff1681526020018773ffffffffffffffffffffffffffffffffffffffff1673ffffffffffffffffffffffffffffffffffffffff1681526020018060200180602001868152602001806020018060200185810385528a8181546001816001161561010002031660029004815260200191508054600181600116156101000203166002900480156103725780601f1061034757610100808354040283529160200191610372565b820191906000526020600020905b81548152906001019060200180831161035557829003601f168201915b50508581038452898181546001816001161561010002031660029004815260200191508054600181600116156101000203166002900480156103f55780601f106103ca576101008083540402835291602001916103f5565b820191906000526020600020905b8154815290600101906020018083116103d857829003601f168201915b50508581038352878181546001816001161561010002031660029004815260200191508054600181600116156101000203166002900480156104785780601f1061044d57610100808354040283529160200191610478565b820191906000526020600020905b81548152906001019060200180831161045b57829003601f168201915b50508581038252868181546001816001161561010002031660029004815260200191508054600181600116156101000203166002900480156104fb5780601f106104d0576101008083540402835291602001916104fb565b820191906000526020600020905b8154815290600101906020018083116104de57829003601f168201915b50509c5050505050505050505050505060405180910390f35b60008060015411151561052657600080fd5b60008211801561053857506001548211155b151561054357600080fd5b600080838152602001908152602001600020905060008160020160009054906101000a900473ffffffffffffffffffffffffffffffffffffffff1673ffffffffffffffffffffffffffffffffffffffff161415156105a057600080fd5b8060010160009054906101000a900473ffffffffffffffffffffffffffffffffffffffff1673ffffffffffffffffffffffffffffffffffffffff163373ffffffffffffffffffffffffffffffffffffffff16141515156105ff57600080fd5b80600501543414151561061157600080fd5b338160020160006101000a81548173ffffffffffffffffffffffffffffffffffffffff021916908373ffffffffffffffffffffffffffffffffffffffff1602179055508060010160009054906101000a900473ffffffffffffffffffffffffffffffffffffffff1673ffffffffffffffffffffffffffffffffffffffff166108fc349081150290604051600060405180830381858888f1935050505015156106b857600080fd5b5050565b6106c4610b32565b6106cc610b32565b6000806106d7610b32565b60006001546040518059106106e95750595b9080825280602002602001820160405250945060009350600192505b600154831115156107575760008084815260200190815260200160002060000154858581518110151561073457fe5b906020019060200201818152505083806001019450508280600101935050610705565b836040518059106107655750595b90808252806020026020018201604052509150600090505b838110156107c657848181518110151561079357fe5b9060200190602002015182828151811015156107ab57fe5b9060200190602002018181525050808060010191505061077d565b819550505050505090565b60008060009150600090505b600154811115156108e857866040518082805190602001908083835b60208310151561081e57805182526020820191506020810190506020830392506107f9565b6001836020036101000a03801982511681845116808217855250505050505090500191505060405180910390206000191660008083815260200190815260200160002060030160405180828054600181600116156101000203166002900480156108bf5780601f1061089d5761010080835404028352918201916108bf565b820191906000526020600020905b8154815290600101906020018083116108ab575b505091505060405180910390206000191614156108db57600191505b80806001019150506107dd565b6000821415610a9b576001600081548092919060010191905055506101006040519081016040528060015481526020013373ffffffffffffffffffffffffffffffffffffffff168152602001600073ffffffffffffffffffffffffffffffffffffffff1681526020018881526020018781526020018681526020018581526020018481525060008060015481526020019081526020016000206000820151816000015560208201518160010160006101000a81548173ffffffffffffffffffffffffffffffffffffffff021916908373ffffffffffffffffffffffffffffffffffffffff16021790555060408201518160020160006101000a81548173ffffffffffffffffffffffffffffffffffffffff021916908373ffffffffffffffffffffffffffffffffffffffff1602179055506060820151816003019080519060200190610a35929190610b46565b506080820151816004019080519060200190610a52929190610b46565b5060a0820151816005015560c0820151816006019080519060200190610a79929190610b46565b5060e0820151816007019080519060200190610a96929190610b46565b509050505b50505050505050565b6000600154905090565b60006020528060005260406000206000915090508060000154908060010160009054906101000a900473ffffffffffffffffffffffffffffffffffffffff16908060020160009054906101000a900473ffffffffffffffffffffffffffffffffffffffff169080600301908060040190806005015490806006019080600701905088565b602060405190810160405280600081525090565b828054600181600116156101000203166002900490600052602060002090601f016020900481019282601f10610b8757805160ff1916838001178555610bb5565b82800160010185558215610bb5579182015b82811115610bb4578251825591602001919060010190610b99565b5b509050610bc29190610bc6565b5090565b610be891905b80821115610be4576000816000905550600101610bcc565b5090565b905600a165627a7a7230582073a7ee908d4c09c1bb3b59ac579146ac0c9a39d8d327c3de3ad7e201991775900029",
  "source": "pragma solidity ^0.4.18;\n\ncontract Renting {\n  // state variables\n  struct Article {\n    uint id;\n    address seller;\n    address buyer;\n    string name;\n    string description;\n    uint256 price;\n    string startdate;\n    string enddate;\n  }\n\n  mapping (uint => Article) public articles;\n  uint articleCounter;\n\n  // sell an article\n  function sellArticle(string _name, string _description, uint256 _price,string _startdate,string _enddate) public {\n    // a new article\n    uint check=0;\n    for(uint j=0; j<=articleCounter;j++){\n\n      if(keccak256(articles[j].name)==keccak256(_name)){\n        check=1;\n      }\n    }\n    if(check==0){\n    articleCounter++;\n\n    // store this article\n    articles[articleCounter] = Article(\n      articleCounter,\n      msg.sender,\n      0x0,\n      _name,\n      _description,\n      _price,\n      _startdate,\n      _enddate\n    );\n}\n}\n  // get an article\n\n\n\n  // fetch the number of articles in the contract\n    function getNumberOfArticles() public view returns (uint) {\n      return articleCounter;\n    }\n\n\n  function getArticlesForSale() public view returns (uint[]) {\n      // prepare output array\n      uint[] memory articleIds = new uint[](articleCounter);\n\n      uint numberOfArticlesForSale = 0;\n      // iterate over articles\n      for(uint i = 1; i <= articleCounter;  i++) {\n        // keep the ID if the article is still for sale\n      //  if(articles[i].buyer == 0x0) {\n          articleIds[numberOfArticlesForSale] = articles[i].id;\n          numberOfArticlesForSale++;\n      //  }\n      }\n\n      // copy the articleIds array into a smaller forSale array\n      uint[] memory forSale = new uint[](numberOfArticlesForSale);\n      for(uint j = 0; j < numberOfArticlesForSale; j++) {\n        forSale[j] = articleIds[j];\n      }\n      return forSale;\n    }\n\n\n  function buyArticle(uint _id) payable public {\n    // we check whether there is an article for sale\n\n    require(articleCounter > 0);\n\n    // we check that the article exists\n    require(_id > 0 && _id <= articleCounter);\n\n    // we retrieve the article\n    Article storage article = articles[_id];\n\n    // we check that the article has not been sold yet\n    require(article.buyer == 0X0);\n\n    // we don't allow the seller to buy his own article\n    require(msg.sender != article.seller);\n\n    // we check that the value sent corresponds to the price of the article\n    require(msg.value == article.price);\n\n    // keep buyer's information\n    article.buyer = msg.sender;\n\n    // the buyer can pay the seller\n    article.seller.transfer(msg.value);\n\n    // trigger the event\n\n  }\n}\n",
  "sourcePath": "C:\\Users\\bad_engineer\\Desktop\\NS_project\\contracts\\Renting.sol",
  "compiler": {
    "name": "solc",
    "version": "0.4.19+commit.c4cbbb05.Emscripten.clang"
  },
  "schemaVersion": "2.0.0",
  "updatedAt": "2018-04-21T10:38:26.377Z"
}