{
  "contractName": "Rent",
  "abi": [
    {
      "constant": false,
      "inputs": [
        {
          "name": "_name",
          "type": "string"
        },
        {
          "name": "_description",
          "type": "string"
        },
        {
          "name": "_price",
          "type": "uint256"
        },
        {
          "name": "_startdate",
          "type": "uint256"
        },
        {
          "name": "_enddate",
          "type": "uint256"
        }
      ],
      "name": "sellFlat",
      "outputs": [],
      "payable": false,
      "stateMutability": "nonpayable",
      "type": "function"
    },
    {
      "constant": true,
      "inputs": [],
      "name": "getFlat",
      "outputs": [
        {
          "name": "_seller",
          "type": "address"
        },
        {
          "name": "_name",
          "type": "string"
        },
        {
          "name": "_description",
          "type": "string"
        },
        {
          "name": "_price",
          "type": "uint256"
        },
        {
          "name": "_startdate",
          "type": "uint256"
        },
        {
          "name": "_enddate",
          "type": "uint256"
        }
      ],
      "payable": false,
      "stateMutability": "view",
      "type": "function"
    }
  ],
  "bytecode": "0x6060604052341561000f57600080fd5b61054f8061001e6000396000f30060606040526004361061004c576000357c0100000000000000000000000000000000000000000000000000000000900463ffffffff1680632230497f14610051578063b26e632814610193575b600080fd5b341561005c57600080fd5b61006461024e565b604051808773ffffffffffffffffffffffffffffffffffffffff1673ffffffffffffffffffffffffffffffffffffffff1681526020018060200180602001868152602001858152602001848152602001838103835288818151815260200191508051906020019080838360005b838110156100ec5780820151818401526020810190506100d1565b50505050905090810190601f1680156101195780820380516001836020036101000a031916815260200191505b50838103825287818151815260200191508051906020019080838360005b83811015610152578082015181840152602081019050610137565b50505050905090810190601f16801561017f5780820380516001836020036101000a031916815260200191505b509850505050505050505060405180910390f35b341561019e57600080fd5b61024c600480803590602001908201803590602001908080601f0160208091040260200160405190810160405280939291908181526020018383808284378201915050505050509190803590602001908201803590602001908080601f016020809104026020016040519081016040528093929190818152602001838380828437820191505050505050919080359060200190919080359060200190919080359060200190919050506103e0565b005b600061025861046a565b61026061046a565b60008060008060009054906101000a900473ffffffffffffffffffffffffffffffffffffffff1660016002600354600454600554848054600181600116156101000203166002900480601f0160208091040260200160405190810160405280929190818152602001828054600181600116156101000203166002900480156103295780601f106102fe57610100808354040283529160200191610329565b820191906000526020600020905b81548152906001019060200180831161030c57829003601f168201915b50505050509450838054600181600116156101000203166002900480601f0160208091040260200160405190810160405280929190818152602001828054600181600116156101000203166002900480156103c55780601f1061039a576101008083540402835291602001916103c5565b820191906000526020600020905b8154815290600101906020018083116103a857829003601f168201915b50505050509350955095509550955095509550909192939495565b336000806101000a81548173ffffffffffffffffffffffffffffffffffffffff021916908373ffffffffffffffffffffffffffffffffffffffff160217905550846001908051906020019061043692919061047e565b50836002908051906020019061044d92919061047e565b508260038190555081600481905550806005819055505050505050565b602060405190810160405280600081525090565b828054600181600116156101000203166002900490600052602060002090601f016020900481019282601f106104bf57805160ff19168380011785556104ed565b828001600101855582156104ed579182015b828111156104ec5782518255916020019190600101906104d1565b5b5090506104fa91906104fe565b5090565b61052091905b8082111561051c576000816000905550600101610504565b5090565b905600a165627a7a72305820ddf439b0a30e0cde0d773cec9229025e2fbd41858881069a857c380017768eda0029",
  "source": "pragma solidity ^0.4.2;\r\n\r\ncontract Rent {\r\n    //state Variables which are going to store in block chain\r\n    address seller;    //address of the wallet\r\n    string name;       //array of characters\r\n    string description;\r\n    uint256 price;       //amount\r\n    uint256 startdate;\r\n    uint256 enddate;\r\n\r\n    //Sell a Flat\r\n    function sellFlat(string _name,string _description,uint256 _price,uint256 _startdate,uint256 _enddate)\r\n    public {\r\n        seller = msg.sender;\r\n        name = _name;\r\n        description=_description;\r\n        price=_price;\r\n        startdate = _startdate;\r\n        enddate = _enddate;\r\n    }\r\n      //calling it is free\r\n      //get the flat\r\n      //declared constant\r\n    function getFlat() public constant returns (\r\n      address _seller,\r\n      string _name,\r\n      string _description,\r\n      uint256 _price,\r\n      uint256 _startdate,\r\n      uint256 _enddate){\r\n        return(seller,name,description,price,startdate,enddate);\r\n\r\n    }\r\n\r\n}\r\n",
  "sourcePath": "C:\\Users\\bad_engineer\\Desktop\\NS_project\\contracts\\Rent.sol",
  "compiler": {
    "name": "solc",
    "version": "0.4.19+commit.c4cbbb05.Emscripten.clang"
  },
  "schemaVersion": "2.0.0",
  "updatedAt": "2018-04-09T21:59:56.236Z"
}